{
  "_format": "hh-sol-artifact-1",
  "contractName": "vanet",
  "sourceName": "contracts/vanet.sol",
  "abi": [
    {
      "inputs": [],
      "stateMutability": "payable",
      "type": "constructor"
    },
    {
      "inputs": [],
      "name": "getMemos",
      "outputs": [
        {
          "components": [
            {
              "internalType": "string",
              "name": "sender",
              "type": "string"
            },
            {
              "internalType": "string",
              "name": "recipient",
              "type": "string"
            },
            {
              "internalType": "string",
              "name": "_message",
              "type": "string"
            },
            {
              "internalType": "string",
              "name": "latitude",
              "type": "string"
            },
            {
              "internalType": "string",
              "name": "longitude",
              "type": "string"
            },
            {
              "internalType": "uint256",
              "name": "timestamp",
              "type": "uint256"
            }
          ],
          "internalType": "struct vanet.Message[]",
          "name": "",
          "type": "tuple[]"
        }
      ],
      "stateMutability": "view",
      "type": "function"
    },
    {
      "inputs": [
        {
          "internalType": "string",
          "name": "user",
          "type": "string"
        }
      ],
      "name": "getReceivedMessages",
      "outputs": [
        {
          "components": [
            {
              "internalType": "string",
              "name": "sender",
              "type": "string"
            },
            {
              "internalType": "string",
              "name": "recipient",
              "type": "string"
            },
            {
              "internalType": "string",
              "name": "_message",
              "type": "string"
            },
            {
              "internalType": "string",
              "name": "latitude",
              "type": "string"
            },
            {
              "internalType": "string",
              "name": "longitude",
              "type": "string"
            },
            {
              "internalType": "uint256",
              "name": "timestamp",
              "type": "uint256"
            }
          ],
          "internalType": "struct vanet.Message[]",
          "name": "",
          "type": "tuple[]"
        }
      ],
      "stateMutability": "view",
      "type": "function"
    },
    {
      "inputs": [
        {
          "internalType": "string",
          "name": "user",
          "type": "string"
        }
      ],
      "name": "getSentMessages",
      "outputs": [
        {
          "components": [
            {
              "internalType": "string",
              "name": "sender",
              "type": "string"
            },
            {
              "internalType": "string",
              "name": "recipient",
              "type": "string"
            },
            {
              "internalType": "string",
              "name": "_message",
              "type": "string"
            },
            {
              "internalType": "string",
              "name": "latitude",
              "type": "string"
            },
            {
              "internalType": "string",
              "name": "longitude",
              "type": "string"
            },
            {
              "internalType": "uint256",
              "name": "timestamp",
              "type": "uint256"
            }
          ],
          "internalType": "struct vanet.Message[]",
          "name": "",
          "type": "tuple[]"
        }
      ],
      "stateMutability": "view",
      "type": "function"
    },
    {
      "inputs": [],
      "name": "getVehicles",
      "outputs": [
        {
          "components": [
            {
              "internalType": "uint256",
              "name": "timestamp",
              "type": "uint256"
            },
            {
              "internalType": "string",
              "name": "vehicle",
              "type": "string"
            },
            {
              "internalType": "string",
              "name": "x",
              "type": "string"
            },
            {
              "internalType": "string",
              "name": "y",
              "type": "string"
            },
            {
              "internalType": "string",
              "name": "speed",
              "type": "string"
            },
            {
              "internalType": "string",
              "name": "acc",
              "type": "string"
            },
            {
              "internalType": "string",
              "name": "heading",
              "type": "string"
            },
            {
              "internalType": "bool",
              "name": "isRegistered",
              "type": "bool"
            }
          ],
          "internalType": "struct vanet.Register[]",
          "name": "",
          "type": "tuple[]"
        }
      ],
      "stateMutability": "view",
      "type": "function"
    },
    {
      "inputs": [
        {
          "internalType": "string",
          "name": "",
          "type": "string"
        },
        {
          "internalType": "uint256",
          "name": "",
          "type": "uint256"
        }
      ],
      "name": "receivedMessages",
      "outputs": [
        {
          "internalType": "string",
          "name": "sender",
          "type": "string"
        },
        {
          "internalType": "string",
          "name": "recipient",
          "type": "string"
        },
        {
          "internalType": "string",
          "name": "_message",
          "type": "string"
        },
        {
          "internalType": "string",
          "name": "latitude",
          "type": "string"
        },
        {
          "internalType": "string",
          "name": "longitude",
          "type": "string"
        },
        {
          "internalType": "uint256",
          "name": "timestamp",
          "type": "uint256"
        }
      ],
      "stateMutability": "view",
      "type": "function"
    },
    {
      "inputs": [
        {
          "internalType": "string",
          "name": "vehicle",
          "type": "string"
        },
        {
          "internalType": "string",
          "name": "x",
          "type": "string"
        },
        {
          "internalType": "string",
          "name": "y",
          "type": "string"
        },
        {
          "internalType": "string",
          "name": "speed",
          "type": "string"
        },
        {
          "internalType": "string",
          "name": "acc",
          "type": "string"
        },
        {
          "internalType": "string",
          "name": "heading",
          "type": "string"
        }
      ],
      "name": "registerVehicle",
      "outputs": [],
      "stateMutability": "payable",
      "type": "function"
    },
    {
      "inputs": [
        {
          "internalType": "string",
          "name": "",
          "type": "string"
        }
      ],
      "name": "registeredVehicles",
      "outputs": [
        {
          "internalType": "uint256",
          "name": "timestamp",
          "type": "uint256"
        },
        {
          "internalType": "string",
          "name": "vehicle",
          "type": "string"
        },
        {
          "internalType": "string",
          "name": "x",
          "type": "string"
        },
        {
          "internalType": "string",
          "name": "y",
          "type": "string"
        },
        {
          "internalType": "string",
          "name": "speed",
          "type": "string"
        },
        {
          "internalType": "string",
          "name": "acc",
          "type": "string"
        },
        {
          "internalType": "string",
          "name": "heading",
          "type": "string"
        },
        {
          "internalType": "bool",
          "name": "isRegistered",
          "type": "bool"
        }
      ],
      "stateMutability": "view",
      "type": "function"
    },
    {
      "inputs": [
        {
          "internalType": "string",
          "name": "sender",
          "type": "string"
        },
        {
          "internalType": "string",
          "name": "recipient",
          "type": "string"
        },
        {
          "internalType": "string",
          "name": "_message",
          "type": "string"
        },
        {
          "internalType": "string",
          "name": "latitude",
          "type": "string"
        },
        {
          "internalType": "string",
          "name": "longitude",
          "type": "string"
        }
      ],
      "name": "sendMessage",
      "outputs": [],
      "stateMutability": "payable",
      "type": "function"
    },
    {
      "inputs": [
        {
          "internalType": "string",
          "name": "",
          "type": "string"
        },
        {
          "internalType": "uint256",
          "name": "",
          "type": "uint256"
        }
      ],
      "name": "sentMessages",
      "outputs": [
        {
          "internalType": "string",
          "name": "sender",
          "type": "string"
        },
        {
          "internalType": "string",
          "name": "recipient",
          "type": "string"
        },
        {
          "internalType": "string",
          "name": "_message",
          "type": "string"
        },
        {
          "internalType": "string",
          "name": "latitude",
          "type": "string"
        },
        {
          "internalType": "string",
          "name": "longitude",
          "type": "string"
        },
        {
          "internalType": "uint256",
          "name": "timestamp",
          "type": "uint256"
        }
      ],
      "stateMutability": "view",
      "type": "function"
    }
  ],
  "bytecode": "0x608060405233600560006101000a81548173ffffffffffffffffffffffffffffffffffffffff021916908373ffffffffffffffffffffffffffffffffffffffff1602179055506132da806100546000396000f3fe6080604052600436106100865760003560e01c806388401aba1161005957806388401aba14610151578063b482535b14610195578063c28f9e61146101d2578063d562f2a4146101ee578063e6b7e2071461023057610086565b806312c36c741461008b578063190818fb146100c857806353df94511461010a578063865c517214610126575b600080fd5b34801561009757600080fd5b506100b260048036038101906100ad91906123eb565b61025b565b6040516100bf9190612633565b60405180910390f35b3480156100d457600080fd5b506100ef60048036038101906100ea9190612681565b61062a565b60405161010196959493929190612736565b60405180910390f35b610124600480360381019061011f91906127ba565b610941565b005b34801561013257600080fd5b5061013b610d51565b6040516101489190612633565b60405180910390f35b34801561015d57600080fd5b50610178600480360381019061017391906123eb565b611094565b60405161018c9897969594939291906128dc565b60405180910390f35b3480156101a157600080fd5b506101bc60048036038101906101b791906123eb565b61142f565b6040516101c99190612633565b60405180910390f35b6101ec60048036038101906101e79190612984565b6117fe565b005b3480156101fa57600080fd5b5061021560048036038101906102109190612681565b611b89565b60405161022796959493929190612736565b60405180910390f35b34801561023c57600080fd5b50610245611ea0565b6040516102529190612c5d565b60405180910390f35b606060008260405161026d9190612cbb565b908152602001604051809103902060070160009054906101000a900460ff166102cb576040517f08c379a00000000000000000000000000000000000000000000000000000000081526004016102c290612d1e565b60405180910390fd5b6001826040516102db9190612cbb565b9081526020016040518091039020805480602002602001604051908101604052809291908181526020016000905b8282101561061f57838290600052602060002090600602016040518060c001604052908160008201805461033c90612d6d565b80601f016020809104026020016040519081016040528092919081815260200182805461036890612d6d565b80156103b55780601f1061038a576101008083540402835291602001916103b5565b820191906000526020600020905b81548152906001019060200180831161039857829003601f168201915b505050505081526020016001820180546103ce90612d6d565b80601f01602080910402602001604051908101604052809291908181526020018280546103fa90612d6d565b80156104475780601f1061041c57610100808354040283529160200191610447565b820191906000526020600020905b81548152906001019060200180831161042a57829003601f168201915b5050505050815260200160028201805461046090612d6d565b80601f016020809104026020016040519081016040528092919081815260200182805461048c90612d6d565b80156104d95780601f106104ae576101008083540402835291602001916104d9565b820191906000526020600020905b8154815290600101906020018083116104bc57829003601f168201915b505050505081526020016003820180546104f290612d6d565b80601f016020809104026020016040519081016040528092919081815260200182805461051e90612d6d565b801561056b5780601f106105405761010080835404028352916020019161056b565b820191906000526020600020905b81548152906001019060200180831161054e57829003601f168201915b5050505050815260200160048201805461058490612d6d565b80601f01602080910402602001604051908101604052809291908181526020018280546105b090612d6d565b80156105fd5780601f106105d2576101008083540402835291602001916105fd565b820191906000526020600020905b8154815290600101906020018083116105e057829003601f168201915b5050505050815260200160058201548152505081526020019060010190610309565b505050509050919050565b600282805160208101820180518482526020830160208501208183528095505050505050818154811061065c57600080fd5b90600052602060002090600602016000915091505080600001805461068090612d6d565b80601f01602080910402602001604051908101604052809291908181526020018280546106ac90612d6d565b80156106f95780601f106106ce576101008083540402835291602001916106f9565b820191906000526020600020905b8154815290600101906020018083116106dc57829003601f168201915b50505050509080600101805461070e90612d6d565b80601f016020809104026020016040519081016040528092919081815260200182805461073a90612d6d565b80156107875780601f1061075c57610100808354040283529160200191610787565b820191906000526020600020905b81548152906001019060200180831161076a57829003601f168201915b50505050509080600201805461079c90612d6d565b80601f01602080910402602001604051908101604052809291908181526020018280546107c890612d6d565b80156108155780601f106107ea57610100808354040283529160200191610815565b820191906000526020600020905b8154815290600101906020018083116107f857829003601f168201915b50505050509080600301805461082a90612d6d565b80601f016020809104026020016040519081016040528092919081815260200182805461085690612d6d565b80156108a35780601f10610878576101008083540402835291602001916108a3565b820191906000526020600020905b81548152906001019060200180831161088657829003601f168201915b5050505050908060040180546108b890612d6d565b80601f01602080910402602001604051908101604052809291908181526020018280546108e490612d6d565b80156109315780601f1061090657610100808354040283529160200191610931565b820191906000526020600020905b81548152906001019060200180831161091457829003601f168201915b5050505050908060050154905086565b60003411610984576040517f08c379a000000000000000000000000000000000000000000000000000000000815260040161097b90612dea565b60405180910390fd5b6000856040516109949190612cbb565b908152602001604051809103902060070160009054906101000a900460ff166109f2576040517f08c379a00000000000000000000000000000000000000000000000000000000081526004016109e990612e56565b60405180910390fd5b600084604051610a029190612cbb565b908152602001604051809103902060070160009054906101000a900460ff16610a60576040517f08c379a0000000000000000000000000000000000000000000000000000000008152600401610a5790612ec2565b60405180910390fd5b83604051602001610a719190612cbb565b6040516020818303038152906040528051906020012085604051602001610a989190612cbb565b6040516020818303038152906040528051906020012003610aee576040517f08c379a0000000000000000000000000000000000000000000000000000000008152600401610ae590612f2e565b60405180910390fd5b60006040518060c0016040528087815260200186815260200185815260200184815260200183815260200142815250905060048190806001815401808255809150506001900390600052602060002090600602016000909190919091506000820151816000019081610b6091906130fa565b506020820151816001019081610b7691906130fa565b506040820151816002019081610b8c91906130fa565b506060820151816003019081610ba291906130fa565b506080820151816004019081610bb891906130fa565b5060a082015181600501555050600186604051610bd59190612cbb565b90815260200160405180910390208190806001815401808255809150506001900390600052602060002090600602016000909190919091506000820151816000019081610c2291906130fa565b506020820151816001019081610c3891906130fa565b506040820151816002019081610c4e91906130fa565b506060820151816003019081610c6491906130fa565b506080820151816004019081610c7a91906130fa565b5060a082015181600501555050600285604051610c979190612cbb565b90815260200160405180910390208190806001815401808255809150506001900390600052602060002090600602016000909190919091506000820151816000019081610ce491906130fa565b506020820151816001019081610cfa91906130fa565b506040820151816002019081610d1091906130fa565b506060820151816003019081610d2691906130fa565b506080820151816004019081610d3c91906130fa565b5060a082015181600501555050505050505050565b60606004805480602002602001604051908101604052809291908181526020016000905b8282101561108b57838290600052602060002090600602016040518060c0016040529081600082018054610da890612d6d565b80601f0160208091040260200160405190810160405280929190818152602001828054610dd490612d6d565b8015610e215780601f10610df657610100808354040283529160200191610e21565b820191906000526020600020905b815481529060010190602001808311610e0457829003601f168201915b50505050508152602001600182018054610e3a90612d6d565b80601f0160208091040260200160405190810160405280929190818152602001828054610e6690612d6d565b8015610eb35780601f10610e8857610100808354040283529160200191610eb3565b820191906000526020600020905b815481529060010190602001808311610e9657829003601f168201915b50505050508152602001600282018054610ecc90612d6d565b80601f0160208091040260200160405190810160405280929190818152602001828054610ef890612d6d565b8015610f455780601f10610f1a57610100808354040283529160200191610f45565b820191906000526020600020905b815481529060010190602001808311610f2857829003601f168201915b50505050508152602001600382018054610f5e90612d6d565b80601f0160208091040260200160405190810160405280929190818152602001828054610f8a90612d6d565b8015610fd75780601f10610fac57610100808354040283529160200191610fd7565b820191906000526020600020905b815481529060010190602001808311610fba57829003601f168201915b50505050508152602001600482018054610ff090612d6d565b80601f016020809104026020016040519081016040528092919081815260200182805461101c90612d6d565b80156110695780601f1061103e57610100808354040283529160200191611069565b820191906000526020600020905b81548152906001019060200180831161104c57829003601f168201915b5050505050815260200160058201548152505081526020019060010190610d75565b50505050905090565b6000818051602081018201805184825260208301602085012081835280955050505050506000915090508060000154908060010180546110d390612d6d565b80601f01602080910402602001604051908101604052809291908181526020018280546110ff90612d6d565b801561114c5780601f106111215761010080835404028352916020019161114c565b820191906000526020600020905b81548152906001019060200180831161112f57829003601f168201915b50505050509080600201805461116190612d6d565b80601f016020809104026020016040519081016040528092919081815260200182805461118d90612d6d565b80156111da5780601f106111af576101008083540402835291602001916111da565b820191906000526020600020905b8154815290600101906020018083116111bd57829003601f168201915b5050505050908060030180546111ef90612d6d565b80601f016020809104026020016040519081016040528092919081815260200182805461121b90612d6d565b80156112685780601f1061123d57610100808354040283529160200191611268565b820191906000526020600020905b81548152906001019060200180831161124b57829003601f168201915b50505050509080600401805461127d90612d6d565b80601f01602080910402602001604051908101604052809291908181526020018280546112a990612d6d565b80156112f65780601f106112cb576101008083540402835291602001916112f6565b820191906000526020600020905b8154815290600101906020018083116112d957829003601f168201915b50505050509080600501805461130b90612d6d565b80601f016020809104026020016040519081016040528092919081815260200182805461133790612d6d565b80156113845780601f1061135957610100808354040283529160200191611384565b820191906000526020600020905b81548152906001019060200180831161136757829003601f168201915b50505050509080600601805461139990612d6d565b80601f01602080910402602001604051908101604052809291908181526020018280546113c590612d6d565b80156114125780601f106113e757610100808354040283529160200191611412565b820191906000526020600020905b8154815290600101906020018083116113f557829003601f168201915b5050505050908060070160009054906101000a900460ff16905088565b60606000826040516114419190612cbb565b908152602001604051809103902060070160009054906101000a900460ff1661149f576040517f08c379a000000000000000000000000000000000000000000000000000000000815260040161149690612d1e565b60405180910390fd5b6002826040516114af9190612cbb565b9081526020016040518091039020805480602002602001604051908101604052809291908181526020016000905b828210156117f357838290600052602060002090600602016040518060c001604052908160008201805461151090612d6d565b80601f016020809104026020016040519081016040528092919081815260200182805461153c90612d6d565b80156115895780601f1061155e57610100808354040283529160200191611589565b820191906000526020600020905b81548152906001019060200180831161156c57829003601f168201915b505050505081526020016001820180546115a290612d6d565b80601f01602080910402602001604051908101604052809291908181526020018280546115ce90612d6d565b801561161b5780601f106115f05761010080835404028352916020019161161b565b820191906000526020600020905b8154815290600101906020018083116115fe57829003601f168201915b5050505050815260200160028201805461163490612d6d565b80601f016020809104026020016040519081016040528092919081815260200182805461166090612d6d565b80156116ad5780601f10611682576101008083540402835291602001916116ad565b820191906000526020600020905b81548152906001019060200180831161169057829003601f168201915b505050505081526020016003820180546116c690612d6d565b80601f01602080910402602001604051908101604052809291908181526020018280546116f290612d6d565b801561173f5780601f106117145761010080835404028352916020019161173f565b820191906000526020600020905b81548152906001019060200180831161172257829003601f168201915b5050505050815260200160048201805461175890612d6d565b80601f016020809104026020016040519081016040528092919081815260200182805461178490612d6d565b80156117d15780601f106117a6576101008083540402835291602001916117d1565b820191906000526020600020905b8154815290600101906020018083116117b457829003601f168201915b50505050508152602001600582015481525050815260200190600101906114dd565b505050509050919050565b60003411611841576040517f08c379a000000000000000000000000000000000000000000000000000000000815260040161183890612dea565b60405180910390fd5b6000865111611885576040517f08c379a000000000000000000000000000000000000000000000000000000000815260040161187c90613218565b60405180910390fd5b6000866040516118959190612cbb565b908152602001604051809103902060070160009054906101000a900460ff16156118f4576040517f08c379a00000000000000000000000000000000000000000000000000000000081526004016118eb90613284565b60405180910390fd5b600560009054906101000a900473ffffffffffffffffffffffffffffffffffffffff1673ffffffffffffffffffffffffffffffffffffffff166108fc349081150290604051600060405180830381858888f1935050505015801561195c573d6000803e3d6000fd5b5060036040518061010001604052804281526020018881526020018781526020018681526020018581526020018481526020018381526020016001151581525090806001815401808255809150506001900390600052602060002090600802016000909190919091506000820151816000015560208201518160010190816119e491906130fa565b5060408201518160020190816119fa91906130fa565b506060820151816003019081611a1091906130fa565b506080820151816004019081611a2691906130fa565b5060a0820151816005019081611a3c91906130fa565b5060c0820151816006019081611a5291906130fa565b5060e08201518160070160006101000a81548160ff021916908315150217905550505060405180610100016040528042815260200187815260200186815260200185815260200184815260200183815260200182815260200160011515815250600087604051611ac29190612cbb565b9081526020016040518091039020600082015181600001556020820151816001019081611aef91906130fa565b506040820151816002019081611b0591906130fa565b506060820151816003019081611b1b91906130fa565b506080820151816004019081611b3191906130fa565b5060a0820151816005019081611b4791906130fa565b5060c0820151816006019081611b5d91906130fa565b5060e08201518160070160006101000a81548160ff021916908315150217905550905050505050505050565b6001828051602081018201805184825260208301602085012081835280955050505050508181548110611bbb57600080fd5b906000526020600020906006020160009150915050806000018054611bdf90612d6d565b80601f0160208091040260200160405190810160405280929190818152602001828054611c0b90612d6d565b8015611c585780601f10611c2d57610100808354040283529160200191611c58565b820191906000526020600020905b815481529060010190602001808311611c3b57829003601f168201915b505050505090806001018054611c6d90612d6d565b80601f0160208091040260200160405190810160405280929190818152602001828054611c9990612d6d565b8015611ce65780601f10611cbb57610100808354040283529160200191611ce6565b820191906000526020600020905b815481529060010190602001808311611cc957829003601f168201915b505050505090806002018054611cfb90612d6d565b80601f0160208091040260200160405190810160405280929190818152602001828054611d2790612d6d565b8015611d745780601f10611d4957610100808354040283529160200191611d74565b820191906000526020600020905b815481529060010190602001808311611d5757829003601f168201915b505050505090806003018054611d8990612d6d565b80601f0160208091040260200160405190810160405280929190818152602001828054611db590612d6d565b8015611e025780601f10611dd757610100808354040283529160200191611e02565b820191906000526020600020905b815481529060010190602001808311611de557829003601f168201915b505050505090806004018054611e1790612d6d565b80601f0160208091040260200160405190810160405280929190818152602001828054611e4390612d6d565b8015611e905780601f10611e6557610100808354040283529160200191611e90565b820191906000526020600020905b815481529060010190602001808311611e7357829003601f168201915b5050505050908060050154905086565b60606003805480602002602001604051908101604052809291908181526020016000905b8282101561228857838290600052602060002090600802016040518061010001604052908160008201548152602001600182018054611f0290612d6d565b80601f0160208091040260200160405190810160405280929190818152602001828054611f2e90612d6d565b8015611f7b5780601f10611f5057610100808354040283529160200191611f7b565b820191906000526020600020905b815481529060010190602001808311611f5e57829003601f168201915b50505050508152602001600282018054611f9490612d6d565b80601f0160208091040260200160405190810160405280929190818152602001828054611fc090612d6d565b801561200d5780601f10611fe25761010080835404028352916020019161200d565b820191906000526020600020905b815481529060010190602001808311611ff057829003601f168201915b5050505050815260200160038201805461202690612d6d565b80601f016020809104026020016040519081016040528092919081815260200182805461205290612d6d565b801561209f5780601f106120745761010080835404028352916020019161209f565b820191906000526020600020905b81548152906001019060200180831161208257829003601f168201915b505050505081526020016004820180546120b890612d6d565b80601f01602080910402602001604051908101604052809291908181526020018280546120e490612d6d565b80156121315780601f1061210657610100808354040283529160200191612131565b820191906000526020600020905b81548152906001019060200180831161211457829003601f168201915b5050505050815260200160058201805461214a90612d6d565b80601f016020809104026020016040519081016040528092919081815260200182805461217690612d6d565b80156121c35780601f10612198576101008083540402835291602001916121c3565b820191906000526020600020905b8154815290600101906020018083116121a657829003601f168201915b505050505081526020016006820180546121dc90612d6d565b80601f016020809104026020016040519081016040528092919081815260200182805461220890612d6d565b80156122555780601f1061222a57610100808354040283529160200191612255565b820191906000526020600020905b81548152906001019060200180831161223857829003601f168201915b505050505081526020016007820160009054906101000a900460ff16151515158152505081526020019060010190611ec4565b50505050905090565b6000604051905090565b600080fd5b600080fd5b600080fd5b600080fd5b6000601f19601f8301169050919050565b7f4e487b7100000000000000000000000000000000000000000000000000000000600052604160045260246000fd5b6122f8826122af565b810181811067ffffffffffffffff82111715612317576123166122c0565b5b80604052505050565b600061232a612291565b905061233682826122ef565b919050565b600067ffffffffffffffff821115612356576123556122c0565b5b61235f826122af565b9050602081019050919050565b82818337600083830152505050565b600061238e6123898461233b565b612320565b9050828152602081018484840111156123aa576123a96122aa565b5b6123b584828561236c565b509392505050565b600082601f8301126123d2576123d16122a5565b5b81356123e284826020860161237b565b91505092915050565b6000602082840312156124015761240061229b565b5b600082013567ffffffffffffffff81111561241f5761241e6122a0565b5b61242b848285016123bd565b91505092915050565b600081519050919050565b600082825260208201905092915050565b6000819050602082019050919050565b600081519050919050565b600082825260208201905092915050565b60005b8381101561249a57808201518184015260208101905061247f565b60008484015250505050565b60006124b182612460565b6124bb818561246b565b93506124cb81856020860161247c565b6124d4816122af565b840191505092915050565b6000819050919050565b6124f2816124df565b82525050565b600060c083016000830151848203600086015261251582826124a6565b9150506020830151848203602086015261252f82826124a6565b9150506040830151848203604086015261254982826124a6565b9150506060830151848203606086015261256382826124a6565b9150506080830151848203608086015261257d82826124a6565b91505060a083015161259260a08601826124e9565b508091505092915050565b60006125a983836124f8565b905092915050565b6000602082019050919050565b60006125c982612434565b6125d3818561243f565b9350836020820285016125e585612450565b8060005b858110156126215784840389528151612602858261259d565b945061260d836125b1565b925060208a019950506001810190506125e9565b50829750879550505050505092915050565b6000602082019050818103600083015261264d81846125be565b905092915050565b61265e816124df565b811461266957600080fd5b50565b60008135905061267b81612655565b92915050565b600080604083850312156126985761269761229b565b5b600083013567ffffffffffffffff8111156126b6576126b56122a0565b5b6126c2858286016123bd565b92505060206126d38582860161266c565b9150509250929050565b600082825260208201905092915050565b60006126f982612460565b61270381856126dd565b935061271381856020860161247c565b61271c816122af565b840191505092915050565b612730816124df565b82525050565b600060c082019050818103600083015261275081896126ee565b9050818103602083015261276481886126ee565b9050818103604083015261277881876126ee565b9050818103606083015261278c81866126ee565b905081810360808301526127a081856126ee565b90506127af60a0830184612727565b979650505050505050565b600080600080600060a086880312156127d6576127d561229b565b5b600086013567ffffffffffffffff8111156127f4576127f36122a0565b5b612800888289016123bd565b955050602086013567ffffffffffffffff811115612821576128206122a0565b5b61282d888289016123bd565b945050604086013567ffffffffffffffff81111561284e5761284d6122a0565b5b61285a888289016123bd565b935050606086013567ffffffffffffffff81111561287b5761287a6122a0565b5b612887888289016123bd565b925050608086013567ffffffffffffffff8111156128a8576128a76122a0565b5b6128b4888289016123bd565b9150509295509295909350565b60008115159050919050565b6128d6816128c1565b82525050565b6000610100820190506128f2600083018b612727565b8181036020830152612904818a6126ee565b9050818103604083015261291881896126ee565b9050818103606083015261292c81886126ee565b9050818103608083015261294081876126ee565b905081810360a083015261295481866126ee565b905081810360c083015261296881856126ee565b905061297760e08301846128cd565b9998505050505050505050565b60008060008060008060c087890312156129a1576129a061229b565b5b600087013567ffffffffffffffff8111156129bf576129be6122a0565b5b6129cb89828a016123bd565b965050602087013567ffffffffffffffff8111156129ec576129eb6122a0565b5b6129f889828a016123bd565b955050604087013567ffffffffffffffff811115612a1957612a186122a0565b5b612a2589828a016123bd565b945050606087013567ffffffffffffffff811115612a4657612a456122a0565b5b612a5289828a016123bd565b935050608087013567ffffffffffffffff811115612a7357612a726122a0565b5b612a7f89828a016123bd565b92505060a087013567ffffffffffffffff811115612aa057612a9f6122a0565b5b612aac89828a016123bd565b9150509295509295509295565b600081519050919050565b600082825260208201905092915050565b6000819050602082019050919050565b612aee816128c1565b82525050565b600061010083016000830151612b0d60008601826124e9565b5060208301518482036020860152612b2582826124a6565b91505060408301518482036040860152612b3f82826124a6565b91505060608301518482036060860152612b5982826124a6565b91505060808301518482036080860152612b7382826124a6565b91505060a083015184820360a0860152612b8d82826124a6565b91505060c083015184820360c0860152612ba782826124a6565b91505060e0830151612bbc60e0860182612ae5565b508091505092915050565b6000612bd38383612af4565b905092915050565b6000602082019050919050565b6000612bf382612ab9565b612bfd8185612ac4565b935083602082028501612c0f85612ad5565b8060005b85811015612c4b5784840389528151612c2c8582612bc7565b9450612c3783612bdb565b925060208a01995050600181019050612c13565b50829750879550505050505092915050565b60006020820190508181036000830152612c778184612be8565b905092915050565b600081905092915050565b6000612c9582612460565b612c9f8185612c7f565b9350612caf81856020860161247c565b80840191505092915050565b6000612cc78284612c8a565b915081905092915050565b7f56656869636c65206e6f74207265676973746572656400000000000000000000600082015250565b6000612d086016836126dd565b9150612d1382612cd2565b602082019050919050565b60006020820190508181036000830152612d3781612cfb565b9050919050565b7f4e487b7100000000000000000000000000000000000000000000000000000000600052602260045260246000fd5b60006002820490506001821680612d8557607f821691505b602082108103612d9857612d97612d3e565b5b50919050565b7f4e6f2065746865722073656e7400000000000000000000000000000000000000600082015250565b6000612dd4600d836126dd565b9150612ddf82612d9e565b602082019050919050565b60006020820190508181036000830152612e0381612dc7565b9050919050565b7f53656e646572206e6f7420726567697374657265640000000000000000000000600082015250565b6000612e406015836126dd565b9150612e4b82612e0a565b602082019050919050565b60006020820190508181036000830152612e6f81612e33565b9050919050565b7f526563697069656e74206e6f7420726567697374657265640000000000000000600082015250565b6000612eac6018836126dd565b9150612eb782612e76565b602082019050919050565b60006020820190508181036000830152612edb81612e9f565b9050919050565b7f526563697069656e7420262053656e646572206d757374206469666665720000600082015250565b6000612f18601e836126dd565b9150612f2382612ee2565b602082019050919050565b60006020820190508181036000830152612f4781612f0b565b9050919050565b60008190508160005260206000209050919050565b60006020601f8301049050919050565b600082821b905092915050565b600060088302612fb07fffffffffffffffffffffffffffffffffffffffffffffffffffffffffffffffff82612f73565b612fba8683612f73565b95508019841693508086168417925050509392505050565b6000819050919050565b6000612ff7612ff2612fed846124df565b612fd2565b6124df565b9050919050565b6000819050919050565b61301183612fdc565b61302561301d82612ffe565b848454612f80565b825550505050565b600090565b61303a61302d565b613045818484613008565b505050565b5b818110156130695761305e600082613032565b60018101905061304b565b5050565b601f8211156130ae5761307f81612f4e565b61308884612f63565b81016020851015613097578190505b6130ab6130a385612f63565b83018261304a565b50505b505050565b600082821c905092915050565b60006130d1600019846008026130b3565b1980831691505092915050565b60006130ea83836130c0565b9150826002028217905092915050565b61310382612460565b67ffffffffffffffff81111561311c5761311b6122c0565b5b6131268254612d6d565b61313182828561306d565b600060209050601f8311600181146131645760008415613152578287015190505b61315c85826130de565b8655506131c4565b601f19841661317286612f4e565b60005b8281101561319a57848901518255600182019150602085019450602081019050613175565b868310156131b757848901516131b3601f8916826130c0565b8355505b6001600288020188555050505b505050505050565b7f456d7074792076656869636c6520494400000000000000000000000000000000600082015250565b60006132026010836126dd565b915061320d826131cc565b602082019050919050565b60006020820190508181036000830152613231816131f5565b9050919050565b7f416c726561647920726567697374657265640000000000000000000000000000600082015250565b600061326e6012836126dd565b915061327982613238565b602082019050919050565b6000602082019050818103600083015261329d81613261565b905091905056fea2646970667358221220a1410b6fb0a87412eb3bc7c035e7697e7df52a1ab0fce7ac7341b50dc3bc444464736f6c63430008110033",
  "linkReferences": {},
  "deployedLinkReferences": {}
}